:020000040800F2
:1000000000000220C12C0008B9210008BB21000813
:10001000BD210008BF210008C12100080000000028
:10002000000000000000000000000000C3210008E4
:10003000C521000800000000C7210008C9210008F0
:10004000112D0008112D0008112D0008112D000898
:10005000112D0008112D0008112D0008112D000888
:10006000112D0008112D0008112D0008112D000878
:10007000112D0008112D0008112D0008112D000868
:10008000112D0008112D0008112D0008112D000858
:10009000112D0008112D0008112D0008112D000848
:1000A000112D0008112D0008112D0008112D000838
:1000B000112D0008112D0008112D0008112D000828
:1000C000112D0008112D0008112D0008112D000818
:1000D000112D0008112D0008112D0008112D000808
:1000E000112D0008112D0008112D0008112D0008F8
:1000F000112D0008112D0008112D0008112D0008E8
:10010000112D0008112D0008112D0008112D0008D7
:10011000112D0008112D0008112D0008112D0008C7
:10012000112D0008112D0008112D0008112D0008B7
:10013000112D0008112D0008112D0008112D0008A7
:10014000112D0008112D0008112D0008112D000897
:10015000112D0008112D0008112D0008112D000887
:10016000112D0008112D0008112D0008112D000877
:10017000112D0008112D0008112D000800000000AD
:08018000112D0008112D0008EB
:100188000348044B834202D0034B03B1184770471E
:100198000C0000200C000020000000000548064963
:1001A8000B1AD90F01EBA301491002D0034B03B17D
:1001B800184770470C0000200C00002000000000C9
:1001C80010B5064C237843B9FFF7DAFF044B13B197
:1001D8000448AFF300800123237010BD0C000020F9
:1001E80000000000142D000808B5044B1BB1044999
:1001F8000448AFF30080BDE80840CFE700000000E6
:1002080010000020142D000870B50D4E0D4D761B02
:10021800B61006D0002455F8043B01349847A6428E
:10022800F9D1094E094D761B02F070FDB61006D0C3
:10023800002455F8043B01349847A642F9D170BD13
:10024800202F0008202F0008242F0008202F000846
:10025800830730B548D0541E002A3FD0CAB203469F
:1002680001E0013C3AD303F8012B9D07F9D1032C97
:100278002DD9CDB245EA05250F2C45EA054536D9D5
:10028800A4F1100222F00F0C03F1200EE6444FEA0D
:10029800121C03F1100242E9045542E902551032DA
:1002A8007245F8D10CF1010214F00C0F03EB0212A5
:1002B80004F00F0C13D0ACF1040323F00303043350
:1002C800134442F8045B9342FBD10CF003042CB1B5
:1002D800CAB21C4403F8012B9C42FBD130BD6446D2
:1002E8001346002CF4D1F9E703461446BFE71A4633
:1002F800A446E0E70000000051EC100B204A21F072
:100308000043934227DD00B51E4A934285B009DDBC
:1003180010EE102A0B4601F0D3FA41EC100B05B091
:100328005DF804FB684600F02FF800F00300012890
:100338009DED021B9DED000B12D0022817D090B145
:1003480000F04AFA53EC102B03F1004300EE903A08
:1003580005B05DF804FB9FED081B002000F0A4BF6A
:1003680000F03AFADBE7012000F09EFFD7E7012012
:1003780000F09AFFE6E700BF000000000000000060
:10038800FB21E93FFFFFEF7F2DE9F04F53EC102BE6
:100398002DED048B904923F000458D428BB0044627
:1003A80040F38C808D498D421F462BDC002F194667
:1003B80010EE100A7EA3D3E9002340F3B68101F0C2
:1003C8007FFA874B9D428046894600F08F807AA34A
:1003D800D3E9002301F074FA02460B46C4E900236E
:1003E8004046494601F06CFA73A3D3E9002301F0B3
:1003F80067FAC4E90201012630460BB0BDEC048B54
:10040800BDE8F08F77498D4240F3928076498D425E
:1004180061DC2E15A6F2164610EE100AA5EB065161
:100428009046894601F08CFC01F098FB02460B4689
:1004380040464946CDE9042301F042FA6B4B0022BD
:1004480001F010F98946804601F07AFC054601F072
:1004580085FB02460B4640464946CDE9062301F096
:100468002FFA624B002201F0FDF802460B46CDE957
:1004780008230022002301F031FC002800F05381FA
:10048800002D0CBF01230223594A01920222009237
:100498002146324604A800F0DFFA002F0646ABDA00
:1004A8006168226801F10043E168C4E90023A26899
:1004B80001F10043C4E9022346429DE700200021E0
:1004C8000026C4E90201304684ED000B0BB0BDECF8
:1004D800048BBDE8F08F10EE100A194601F0F0F910
:1004E8000026C4E90201C4E9000185E734A3D3E981
:1004F800002301F0E5F934A3D3E9002380468946B7
:1005080001F0DEF902460B46C4E90023404649469D
:1005180001F0D6F92CA3D3E9002301F0D1F9012683
:10052800C4E9020130460BB0BDEC048BBDE8F08F86
:1005380000F078FF59EC108B10EE100A24A3D3E9D1
:100548000023494601F08EF82A4B002201F0BAF93F
:1005580001F0F6FB064601F001FB02460B4643ECB0
:10056800182B13A3D3E90023B0EE489AF0EE689A4B
:1005780001F078F802460B464046494601F0A0F9DA
:100588000DA3D3E9002382468B4651EC180B01F0EA
:1005980069F81F2E41EC180B30DC174B721E53F80C
:1005A8002230AB422AD002460B469BE0AFF30080D4
:1005B80000004054FB21F93F3163621A61B4D03D19
:1005C8000000601A61B4D03D7370032E8A19A33BF2
:1005D80083C8C96D305FE43FFB21E93F7BD9024006
:1005E800FB21F93FFB213941FFFFEF7F00007041FC
:1005F800B02D00080000E03F302D00082B150393B4
:10060800504653EC182B594601F05AF9C1F30A53D6
:10061800C3EB1555102D8046894669DD64A3D3E9DF
:10062800002351EC190B01F01DF88046894642461B
:100638004B465046594601F043F902460B46504690
:10064800594692469B4601F03BF942464B4601F01B
:1006580037F959A3D3E900238046894651EC190B91
:1006680001F000F842464B4601F02AF902460B46D3
:100678005046594643EC182B01F022F9039AC1F36E
:100688000A53D31A312B8046894631DD4DA3D3E96D
:10069800002351EC190B00F0E5FF804689464246DD
:1006A8004B465046594601F00BF902460B46504658
:1006B800594692469B4601F003F942464B4601F0E3
:1006C800FFF842A3D3E900238046894651EC190B71
:1006D80000F0C8FF42464B4601F0F2F802460B46CE
:1006E80043EC182B5046594601F0EAF880468946F3
:1006F80042464B46C4E900895046594601F0E0F8A5
:1007080053EC182B01F0DCF8002FC4E90201BFF606
:1007180073AE09F10043C4E9008301F10043C4E961
:100728000203764268E60323AEE601F0CBF8244BD9
:100738009D428046894616D01BA3D3E9002301F0C9
:10074800C1F802460B46C4E900234046494601F079
:10075800B7F815A3D3E9002301F0B4F84FF0FF363A
:10076800C4E9020148E612A3D3E9002301F0AAF87C
:1007780011A3D3E900238046894601F0A3F8024675
:100788000B46C4E900234046494601F099F80AA3FC
:10079800D3E9002301F096F84FF0FF36C4E90201CF
:1007A8002AE600BFAFF300803163621A61B4D03D1E
:1007B8000000601A61B4D03D7370032E8A19A33B00
:1007C800FB21F93F0000002E8A19A33BC1492025CF
:1007D8009A837B39000000002DE9F84F57EC106B25
:1007E80027F00049B9F1795F2DED048B5BEC11AB73
:1007F80071DA10EE100A394601F0A2FA002800F06A
:10080800F68032463B463046394600F02BFF7CA343
:10081800D3E9002304460D4600F024FF7AA3D3E968
:10082800002301F04FF822462B4600F01BFF78A367
:10083800D3E9002301F044F822462B4600F012FFCA
:1008480075A3D3E9002301F03DF822462B4600F0BA
:1008580009FF73A3D3E9002301F032F822462B469F
:1008680000F000FF70A3D3E9002301F02BF8224623
:100878002B4600F0F7FE41EC180B714B0022204686
:10088800294600F0EFFE53EC182B80468946204697
:10089800294600F0E7FE52465B4604460D463046C0
:1008A800394600F0DFFE02460B462046294601F095
:1008B80007F802460B464046494601F001F8024651
:1008C8000B4600205F4900F0FBFFBDEC048B41ECB8
:1008D800100BBDE8F88F10EE102A10EE100A3B46F8
:1008E800394600F0BFFE46A3D3E9002304460D466F
:1008F80000F0B8FE44A3D3E9002300F0E3FF22464A
:100908002B4600F0AFFE42A3D3E9002300F0D8FF46
:1009180022462B4600F0A6FE3FA3D3E9002300F0B1
:10092800D1FF22462B4600F09DFE3DA3D3E90023CC
:1009380000F0C6FF22462B4600F094FE3AA3D3E906
:10094800002300F0BFFF2B46224600F08BFE3E4BF3
:10095800994541EC180B90DD3C4B99453CDC002255
:10096800A9F50013374900209046994600F0A8FFE2
:1009780041EC190B324B00222046294600F072FE4A
:1009880042464B4600F09CFF53EC182B80468946A4
:100998002046294600F066FE52465B4604460D4650
:1009A8003046394600F05EFE02460B462046294690
:1009B80000F086FF02460B464046494600F080FF9D
:1009C80002460B4651EC190B00F07AFFBDEC048B84
:1009D80041EC100BBDE8F88F9FED157BDFF87090A8
:1009E800B0EE479AF0EE679A4FF00008C2E7BDEC08
:1009F800048B9FED110BBDE8F88F00BFAFF30080AB
:100A0800D43888BEE9FAA8BDC4B1B4BD9EEE213E73
:100A1800AD529C804F7E923E9015CB19A001FA3EB4
:100A28007751C1166CC1563F4C5555555555A53F84
:100A3800000000000000E73F000000000000F03F59
:100A48000000E03F0000F03F3233D33F0000E93FB1
:100A58000000D23F000000002DE9F04FADF5197DF0
:100A68001C4608930B91BA4BA299049053F8211095
:100A78000591631E12F1140F0393C0F24B83B5491D
:100A8800D31E81FB0301DB17C3EBA10307930133DB
:100A9800A3EB8303DB00D3180693079A039BD41AAE
:100AA800059AD6181AD40136A39F264420AD4FF0D4
:100AB80000084FF0000908E057F8240001F04EF84C
:100AC8000134B442E5E8020108D0002CF4DA01341C
:100AD80040464946B442E5E80201F6D1059B002BA1
:100AE800C0F2C683089BDDF80C9020AA02EBC30A6B
:100AF800DA000292059A1A440192049A0DF5E07BF5
:100B080002EBC308039B002BC0F2A781049E574643
:100B18000024002577E90223F6E8020100F0A2FD8F
:100B280002460B462046294600F0CCFE46450446C0
:100B38000D46EFD1019B09F101099945EBE8024502
:100B48000AF1080ADED1049A029B1344059A01921D
:100B58009B460BAB03EB82030A930CAB03EB8203BC
:100B6800083B0993019A98AB03EBC203002A53E9A7
:100B7800284529DD0DF5E07A0AEBC2080DF13009A8
:100B8800754B00222046294600F06CFD01F0D8F88C
:100B980000F0E4FF714B002206460F4600F062FDAC
:100BA80002460B462046294600F08AFE01F0C8F8A6
:100BB80078E9022349F8040B3946304600F082FEF2
:100BC800D04504460D46DBD1DDF8189045EC104BB6
:100BD800484600F0B5FC55EC104B00224FF07F530F
:100BE80010EE100A294600F03DFD41EC100B00F014
:100BF80023FC5B4B51EC100B002200F033FD024646
:100C08000B462046294600F05BFE0D46044601F0DF
:100C180097F8804600F0A2FF0B4602462946204678
:100C280000F04EFE4B46002B06460F4640F39A80D6
:100C3800019A511E0CAAC9F1180352F8212042FA50
:100C480003F000FA03F3D31AC9F117050CAA43FA03
:100C580005F5002D42F82130804400F38D800022F4
:100C680000233046394601F039F8002800F059824F
:100C7800019B059A03F1FF3A524510DC03F18043CA
:100C88000CAA013B0A9802EB8303002253F80419CB
:100C9800834242EA0102F9D1002A40F0E180059B33
:100CA8000CAA013B52F82330002B40F0D180099A5E
:100CB800012352F8041901330029FAD0019AD318F4
:100CC8000293531C9946019A08990A449046079A38
:100CD80002EB030A0AF1804AA39A0AF1FF3A02EBEF
:100CE8008A0A20AA02EBC80870AA02EBC303019380
:100CF8005AF8040F00F032FF0B4603990246002908
:100D0800C8E90023474608F108081EDB049E0024B2
:100D1800002501E077E90223F6E8020100F0A2FCD1
:100D280002460B462046294600F0CCFD5E450446A7
:100D38000D46EFD1019BE3E802450193029B09F1BF
:100D480001099945D4DD01930CE700240025F1E75A
:100D5800B82E0008ABAAAA2A0000703E0000704115
:100D6800000020406BD1019B0CAA013B52F8235094
:100D7800ED15002D7FF773AF019B002B08F10108DB
:100D880040F3CD810C9C002C51D1019B012B20D02C
:100D98000CAB012253F8044F002C4BD0531C0CA968
:100DA800C4F1807441F822400199994210DD0CAADF
:100DB8000CA852F8232000EB830300EB81006FF0AE
:100DC8007F4100E01A688A1A43F8042B8342F9D15C
:100DD8000124069B002B0EDD012B00F06C81022BF9
:100DE80009D1019B5A1E0CAB0CA953F82230C3F34E
:100DF800150341F82230022D7FF431AF32463B46CD
:100E0800B749002000F05CFD06460F46002C3FF471
:100E180026AF06989FEDAE0B00F092FB30463946A0
:100E280053EC102B00F04CFD06460F4617E7012344
:100E38000022B4E7019901328A42ABD1C9E7A94B34
:100E4800002200F069FF002840F05281054606E7BD
:100E5800019B01339946029335E70024002569E692
:100E6800069B0395A3F118020CABCDF81C8053F830
:100E78002A30069273B9019B03F18043023B0CA907
:100E880001EB830353F804190AF1FF3A183A0029D1
:100E9800F8D006929FED8E0B069800F051FBBAF140
:100EA800000F55EC104BC0F2D98170AB03EBCA0BA5
:100EB8000CAA0AF10103069302EB8306DFF82892D5
:100EC8004FEACA0304930BF108074FF0000856F8DD
:100ED800040D00F043FE22462B4600F0C3FB4B46B0
:100EE80067E9020142462046294600F0BBFB0CABED
:100EF8009E4204460D46EAD148ABCDE9013ADDF8F9
:100F080014A0BAF1000F4FF000092CDB72A3D3E94B
:100F18000023DFF8D8815F4600260024002503E07F
:100F2800B14510DBF8E80223F7E8020100F09AFB6C
:100F380002460B462046294600F0C4FC0136B2455D
:100F480004460D46ECDA019B029A03EBC9034A45B5
:100F5800C3E90045ABF1080B09F1010306D0BAF16A
:100F6800000F9946D2DA00240025ECE7A29BDDF8B1
:100F780008A0022B1EDC002B00F3098113D1049C6E
:100F8800019D08342C440020002174E9022300F05C
:100F980099FCA542F9D1039B13B101F1004319460D
:100FA8000B9BC3E90001079B03F007000DF5197DB2
:100FB800BDE8F08FA29B032BF5D1BAF1000F00F02A
:100FC8006981019A049BD318D3E9004502EBCA0B47
:100FD8007BE902672046294632463B4600F072FC10
:100FE800A046A94604460D4622462B4630463946B9
:100FF80000F066FC4B46424600F064FC019B5B45F2
:10100800CBE90201CBE90045E2D1BAF1010F40F387
:101018004181019A049B0AF1005A0AF1FF3A1344EC
:101028004FEACA01D3E9004501F1080A0291924446
:101038000DF5947B7AE902672046294632463B46FD
:1010480000F040FCA046A94604460D4622462B4621
:101058003046394600F034FC42464B4600F032FC3C
:10106800D345CAE90201CAE90045E3D1029C019BC4
:1010780010341C4403F110050020002174E90223F8
:1010880000F020FCA542F9D1039B002B40F0BD8065
:101098000B9CC4E904010198D0E90023C4E90023AA
:1010A800D0E90223C4E90223079B03F007000DF5EA
:1010B800197DBDE8F08F019B5A1E0CAB0CA953F8A3
:1010C8002230C3F3160341F8223094E6AFF30080D0
:1010D800000000000000F03F00000040FB21F93F45
:1010E8000000F03F0000E03F0000703ED02E0008F6
:1010F800019B002B08F10108C8BF02253FF742AE4B
:1011080032463B466549002000F0DAFB02250646D8
:101118000F46A4E500216FF017030791BBE40024F4
:1011280057E647EC106B069E03957042CDF81C807D
:1011380000F006FA55EC104B594B10EE100A00223D
:10114800294600F0E9FD002855D0564B019F0022A2
:10115800183620462946069600F084FA00F0F0FD7D
:10116800064600F0FBFC4E4B002200F07BFA0B46D3
:1011780002462946204600F0A3FB00F0E1FD07F1F6
:10118800010A0CAB43F8270043F82A6082E6019D68
:10119800069B002005EBC304002174E9022300F03C
:1011A80091FBA542F9D1039B002B47D10B9BC3E9C7
:1011B80000010B4601990246D1E9000100F080FBCD
:1011C800BAF1000F0DDD4AAD0124F5E80223013420
:1011D80000F078FBA245F8DA039B13B101F1004354
:1011E80019460B9BC3E90201079B03F007000DF5A5
:1011F800197DBDE8F08F2046294600F0A1FD019B2E
:101208000CAA9A4642F8230044E6019E01F10043E5
:1012180074680B993268F568C1E9040304F1004366
:10122800C1E90023B26805F10043C1E90223079B25
:1012380003F007000DF5197DBDE8F08F0B9A01F159
:10124800004353600B46019910600246D1E9000142
:1012580000F036FBBAF1000FB5DCBFE7A29B022B0A
:101268000ADC002B11DC7FF49EAE0020002192E600
:10127800089BDB00029366E4A29B032B7FF493AEEA
:1012880048AB002000210193FEE648AB0020002176
:10129800019388E700200021F6E600BF0000F03F38
:1012A800000070410000703E2DE9F04F55EC104BE6
:1012B80085B025F00043B3F1795F8DED001B0390F5
:1012C80007DA10EE100A294600F03AFD002800F06F
:1012D800898022462B462046294600F0C3F9064657
:1012E8000F4632463B462046294600F0BBF943A349
:1012F800D3E9002382468B463046394600F0B2F9DE
:1013080040A3D3E9002300F0DBFA32463B4600F065
:10131800A9F93EA3D3E9002300F0D4FA32463B46AC
:1013280000F0A0F93BA3D3E9002300F0C9FA324644
:101338003B4600F097F939A3D3E9002300F0C2FA3D
:10134800039B80468946ABB3DDE900012A4B0022A6
:1013580000F088F942464B46804689465046594631
:1013680000F080F902460B464046494600F0A8FACC
:1013780032463B4600F076F9DDE9002300F0A0FA9A
:101388001BA3D3E9002306460F465046594600F0F2
:1013980069F902460B463046394600F093FA024690
:1013A8000B462046294600F08BFA41EC100B05B09D
:1013B800BDE8F08F02460B463046394600F052F938
:1013C8000BA3D3E9002300F07BFA52465B4600F0FA
:1013D80049F922462B4600F075FA41EC100B05B08E
:1013E800BDE8F08F45EC104B05B0BDE8F08F00BFAD
:1013F800495555555555C53F0000E03F7CD5CF5A56
:101408003AD9E53DEB9C2B8AE6E55A3E7DFEB1577D
:10141800E31DC73ED561C119A0012A3FA6F81011E6
:101428001111813F51EC100B10EE102A21F00043EE
:1014380043EC102B704700BF51EC100BF8B5C1F30B
:101448000A53A3F2FF35132D10EE106A0C4630DC58
:10145800002D1EDB384F2F4101EA070303432DD02F
:1014680033A3D3E9002300F02DFA0022002300F073
:101478005DFC48B1002C04DA4FF4801343FA05F5FB
:101488002C4424EA070400262346324643EC102B5A
:10149800F8BD27A3D3E9002300F014FA00220023A3
:1014A80000F044FC0028EFD0002C29DB002634464D
:1014B800EAE7332D05DDB5F5806F19D041EC100B47
:1014C800F8BDA3F213434FF0FF37DF400742F5D0D2
:1014D80017A3D3E9002300F0F5F90022002300F058
:1014E80025FC0028D0D0002C13DB26EA0706CBE722
:1014F80010EE102A0B4600F0E5F941EC100BF8BD90
:1015080024F000430D4A1E43002E18BF144600263F
:10151800BAE7142D08D00123C5F1340503FA05F5FF
:10152800AE1928BFE418E0E70134DEE7AFF3008026
:101538009C7500883CE4377EFFFF0F000000F0BF79
:1015480038B553EC102BC3F30A5104469C4689BBAB
:1015580010EE101A23F0004C5CEA010129D019465C
:1015680000223D4B3D4D10EE100A00F07BF8AC42D6
:1015780002460B4616DB8C46C1F30A513639214424
:1015880040F2FE70814221DC002947DC11F1350F61
:1015980034DA4CF250318C4218DC002B26A1D1E908
:1015A800000144DB24A3D3E9002300F05BF841ECFD
:1015B800100B38BD40F2FF708142E0D110EE100AE6
:1015C800194600F07FF941EC100B38BD002B1CA127
:1015D800D1E9000107DB1AA3D3E9002300F042F8A0
:1015E80041EC100B38BD18A1D1E9000114A3D3E9CF
:1015F800002300F037F841EC100BF3E72CF0FF4C18
:101608002CF4E00C36314CEA0153104619460022FE
:10161800134B00F027F841EC100B38BD2CF0FF4CB1
:101628002CF4E00C4CEA015343EC102B38BD08A114
:10163800D1E90001B6E700BF59F3F8C21F6EA50152
:101648009C7500883CE4377E9C7500883CE437FE36
:1016580059F3F8C21F6EA58100005043B03CFFFF4C
:101668000000903C70B54FF0FF0C4CF4E06C1CEAA5
:1016780011541DBF1CEA135594EA0C0F95EA0C0F80
:1016880000F0DEF82C4481EA030621EA4C5123EAF3
:101698004C5350EA013518BF52EA033541F4801122
:1016A80043F4801338D0A0FB02CE4FF00005E1FBD5
:1016B80002E506F00042E0FB03E54FF00006E1FB1F
:1016C80003569CF0000F18BF4EF0010EA4F1FF0462
:1016D800B6F5007F64F5407404D25FEA4E0E6D41A2
:1016E80046EB060642EAC62141EA55514FEAC520B3
:1016F80040EA5E504FEACE2EB4F1FD0C88BFBCF52F
:10170800E06F1ED8BEF1004F08BF5FEA500E50F1DF
:10171800000041EB045170BD06F0004646EA0101A5
:1017280040EA020081EA0301B4EB5C04C2BFD4EBD7
:101738000C0541EA045170BD41F480114FF0000ED0
:10174800013C00F3AB8014F1360FDEBF002001F03E
:10175800004170BDC4F10004203C35DA0C341BDCB8
:1017680004F11404C4F1200500FA05F320FA04F08A
:1017780001FA05F240EA020001F0004221F00041BE
:1017880010EBD37021FA04F642EB06015EEA430E31
:1017980008BF20EAD37070BDC4F10C04C4F1200561
:1017A80000FA04F320FA05F001FA04F240EA020014
:1017B80001F0004110EBD37041F100015EEA430EE5
:1017C80008BF20EAD37070BDC4F1200500FA05F205
:1017D8004EEA020E20FA04F301FA05F243EA020384
:1017E80021FA04F001F0004121FA04F220EA020093
:1017F80000EBD3705EEA430E08BF20EAD37070BDD9
:1018080094F0000F0FD101F00046400041EB0101B8
:1018180011F4801F08BF013CF7D041EA060195F09A
:10182800000F18BF704703F00046520043EB030354
:1018380013F4801F08BF013DF7D043EA0603704741
:1018480094EA0C0F0CEA135518BF95EA0C0F0CD04C
:1018580050EA410618BF52EA4306D1D181EA030192
:1018680001F000414FF0000070BD50EA410606BF8C
:101878001046194652EA430619D094EA0C0F02D1D1
:1018880050EA013613D195EA0C0F05D152EA033616
:101898001CBF104619460AD181EA030101F0004134
:1018A80041F0FE4141F470014FF0000070BD41F07D
:1018B800FE4141F4780170BD81F0004102E000BFB3
:1018C80083F0004330B54FEA41044FEA430594EAF8
:1018D800050F08BF90EA020F1FBF54EA000C55EA33
:1018E800020C7FEA645C7FEA655C00F0E2804FEA04
:1018F8005454D4EB5555B8BF6D420CDD2C4480EAE6
:10190800020281EA030382EA000083EA010180EA15
:10191800020281EA0303362D88BF30BD11F0004F63
:101928004FEA01314FF4801C4CEA113102D0404299
:1019380061EB410113F0004F4FEA03334CEA1333D4
:1019480002D0524263EB430394EA050F00F0A780EC
:10195800A4F10104D5F1200E0DDB02FA0EFC22FAE7
:1019680005F2801841F1000103FA0EF2801843FADB
:1019780005F359410EE0A5F120050EF1200E012ACC
:1019880003FA0EFC28BF4CF0020C43FA05F3C0180A
:1019980051EBE37101F0004507D54FF0000EDCF183
:1019A800000C7EEB00006EEB0101B1F5801F1BD32C
:1019B800B1F5001F0CD349085FEA30004FEA3C0C30
:1019C80004F101044FEA445212F5800F80F09A8026
:1019D800BCF1004F08BF5FEA500C50F1000041EB2A
:1019E800045141EA050130BD5FEA4C0C404141EB2E
:1019F8000101013C28BFB1F5801FE9D291F0000F29
:101A080004BF01460020B1FA81F308BF2033A3F1D7
:101A18000B03B3F120020CDA0C3208DD02F1140CCE
:101A2800C2F10C0201FA0CF021FA02F10CE002F109
:101A38001402D8BFC2F1200C01FA02F120FA0CFC02
:101A4800DCBF41EA0C019040E41AA2BF01EB04514B
:101A5800294330BD6FEA04041F3C1CDA0C340EDC49
:101A680004F11404C4F1200220FA04F001FA02F38C
:101A780040EA030021FA04F345EA030130BDC4F14A
:101A88000C04C4F1200220FA02F001FA04F340EA3F
:101A98000300294630BD21FA04F0294630BD94F0F0
:101AA800000F83F4801306BF81F480110134013DD7
:101AB8004EE77FEA645C18BF7FEA655C29D094EA48
:101AC800050F08BF90EA020F05D054EA000C04BFC6
:101AD8001946104630BD91EA030F1EBF00210020B1
:101AE80030BD5FEA545C05D14000494128BF41F050
:101AF800004130BD14F580043CBF01F5801130BDB4
:101B080001F0004545F0FE4141F470014FF000003E
:101B180030BD7FEA645C1ABF194610467FEA655CEF
:101B28001CBF0B46024650EA013406BF52EA033591
:101B380091EA030F41F4002130BD00BF90F0000F7F
:101B480004BF0021704730B54FF4806404F13204BB
:101B58004FF000054FF0000150E700BF90F0000F74
:101B680004BF0021704730B54FF4806404F132049B
:101B780010F0004548BF40424FF000013EE700BF6B
:101B880042004FEAE2014FEA31014FEA02701FBFFB
:101B980012F07F4393F07F4F81F06051704732F02D
:101BA8007F4208BF704793F07F4F04BF41F4002184
:101BB800704730B54FF4607401F0004521F00041E2
:101BC8001CE700BF50EA010208BF704730B54FF06C
:101BD80000050AE050EA010208BF704730B511F06D
:101BE800004502D5404261EB41014FF4806404F1A5
:101BF80032045FEA915C3FF4D8AE4FF003025FEA2B
:101C0800DC0C18BF03325FEADC0C18BF033202EBAE
:101C1800DC02C2F1200300FA03FC20FA02F001FA08
:101C280003FE40EA0E0021FA02F11444BDE600BFAB
:101C38004FF0FF3C06E000BF4FF0010C02E000BF90
:101C48004FF0010C4DF804CD4FEA410C7FEA6C5C73
:101C58004FEA430C18BF7FEA6C5C1BD001B050EA16
:101C6800410C0CBF52EA430C91EA030F02BF90EA01
:101C7800020F0020704710F1000F91EA030F58BFC0
:101C8800994208BF90422CBFD8176FEAE37040F022
:101C9800010070474FEA410C7FEA6C5C02D150EAC0
:101CA800013C07D14FEA430C7FEA6C5CD6D152EA7B
:101CB800033CD3D05DF8040B704700BF8446104640
:101CC80062468C461946634600E000BF01B5FFF73F
:101CD800B7FF002848BF10F1000F01BD4DF808ED0F
:101CE800FFF7F4FF0CBF012000205DF808FB00BFE0
:101CF8004DF808EDFFF7EAFF34BF012000205DF83A
:101D080008FB00BF4DF808EDFFF7E0FF94BF012086
:101D180000205DF808FB00BF4DF808EDFFF7CEFF87
:101D280094BF012000205DF808FB00BF4DF808EDC6
:101D3800FFF7C4FF34BF012000205DF808FB00BF97
:101D48004FEA410212F5001215D211D56FF47873DB
:101D5800B3EB625212D94FEAC12343F0004343EA7E
:101D6800505311F0004F23FA02F018BF4042704759
:101D78004FF00000704750EA013005D111F00040E3
:101D880008BF6FF0004070474FF00000704700BF79
:101D98004FEA4102B2F1E04324BFB3F5001CDCF185
:101DA800FE5C0DD901F0004C4FEAC0024CEA5070BD
:101DB800B2F1004F40EB830008BF20F001007047EC
:101DC80011F0804F21D113F13872BCBF01F00040EF
:101DD800704741F480114FEA5252C2F11802C2F121
:101DE800200C10FA0CF320FA02F018BF40F00100A2
:101DF8004FEAC1234FEAD32303FA0CFC40EA0C0054
:101E080023FA02F34FEA4303CCE77FEA625307D190
:101E180050EA01331EBF4FF0FE4040F440007047C7
:101E280001F0004040F0FE4040F40000704700BF61
:101E380053B94AB9002908BF00281CBF4FF0FF3129
:101E48004FF0FF3000F074B9ADF1080C6DE904CE25
:101E580000F006F8DDF804E0DDE9022304B070477D
:101E68002DE9F047089D04468E46002B4DD18A4245
:101E7800944669D9B2FA82F252B101FA02F3C2F178
:101E8800200120FA01F10CFA02FC41EA030E944009
:101E98004FEA1C48210CBEFBF8F61FFA8CF708FB2A
:101EA80016E341EA034306FB07F199420AD91CEB02
:101EB800030306F1FF3080F01F81994240F21C8134
:101EC800023E63445B1AA4B2B3FBF8F008FB10337C
:101ED80044EA034400FB07F7A7420AD91CEB0404B1
:101EE80000F1FF3380F00A81A74240F20781644481
:101EF800023840EA0640E41B00261DB1D440002306
:101F0800C5E900433146BDE8F0878B4209D9002D69
:101F180000F0EF800026C5E9000130463146BDE8F3
:101F2800F087B3FA83F6002E4AD18B4202D382425D
:101F380000F2F980841A61EB030301209E46002D0C
:101F4800E0D0C5E9004EDDE702B9FFDEB2FA82F261
:101F5800002A40F09280A1EB0C014FEA1C471FFABF
:101F68008CFE0126200CB1FBF7F307FB131140EAA6
:101F780001410EFB03F0884208D91CEB010103F173
:101F8800FF3802D2884200F2CB804346091AA4B235
:101F9800B1FBF7F007FB101144EA01440EFB00FE09
:101FA800A64508D91CEB040400F1FF3102D2A6456E
:101FB80000F2BB800846A4EB0E0440EA03409CE70D
:101FC800C6F12007B34022FA07FC4CEA030C20FABA
:101FD80007F401FA06F31C43F9404FEA1C4900FADA
:101FE80006F3B1FBF9F8200C1FFA8CFE09FB181157
:101FF80040EA014108FB0EF0884202FA06F20BD9CA
:102008001CEB010108F1FF3A80F08880884240F219
:102018008580A8F102086144091AA4B2B1FBF9F05D
:1020280009FB101144EA014100FB0EFE8E4508D958
:102038001CEB010100F1FF346CD28E456AD90238DD
:10204800614440EA0840A0FB0294A1EB0E01A142C2
:10205800C846A64656D353D05DB1B3EB080261EB30
:102068000E0101FA07F722FA06F3F1401F43C5E90A
:10207800007100263146BDE8F087C2F12003D84040
:102088000CFA02FC21FA03F3914001434FEA1C4782
:102098001FFA8CFEB3FBF7F007FB10360B0C43EA74
:1020A800064300FB0EF69E4204FA02F408D91CEB24
:1020B800030300F1FF382FD29E422DD90238634422
:1020C8009B1B89B2B3FBF7F607FB163341EA0341C2
:1020D80006FB0EF38B4208D91CEB010106F1FF3811
:1020E80016D28B4214D9023E6144C91A46EA004608
:1020F80038E72E46284605E70646E3E61846F8E69A
:102108004B45A9D2B9EB020864EB0C0E0138A3E7E2
:102118004646EAE7204694E74046D1E7D0467BE7C3
:10212800023B614432E7304609E76444023842E73B
:10213800704700BF30B589B0002403940494059417
:10214800069407940094184B1A6B42F010021A6315
:102158001A6B02F010020092009A01941A6B42F076
:1021680080021A631A6B02F080020192019A0294AB
:102178001A6B42F001021A631B6B03F0010302930E
:10218800029B0A4D01221C21284600F029FC1C2331
:102198000393012304930594069403A9284600F0A9
:1021A8002DFB09B030BD00BF0038024000100240CE
:1021B800FEE7FEE7FEE7FEE7FEE770477047704779
:1021C80008B500F0B1FC08BD82B0002100910B4BAE
:1021D8005A6C42F480425A645A6C02F4804200926B
:1021E800009A01911A6C42F080521A641B6C03F039
:1021F80080530193019B02B0704700BF0038024032
:10220800002800F0E08170B582B00446036813F03E
:10221800010F3BD09F4B9B6803F00C03042B2CD081
:102228009C4B9B6803F00C03082B21D06368B3F523
:10223800803F4FD0B3F5A02F52D0964B1A6822F4A6
:1022480080321A601A6822F480221A606368002BB0
:1022580050D000F075FC05468E4B1B6813F4003F08
:1022680014D100F06DFC401B6428F5D90320B1E1BE
:10227800884B5B6813F4800FD8D0864B1B6813F427
:10228800003F03D06368002B00F09F81236813F0A0
:10229800020F54D07F4B9B6813F00C0F3ED07D4B40
:1022A8009B6803F00C03082B33D0E368002B68D03D
:1022B800794B01221A6000F043FC0546754B1B68F8
:1022C80013F0020F54D100F03BFC401B0228F5D953
:1022D80003207FE16F4A136843F480331360B5E746
:1022E8006C4B1A6842F480221A601A6842F48032F1
:1022F8001A60ABE700F024FC0546664B1B6813F434
:10230800003FC3D000F01CFC401B6428F5D9032013
:1023180060E1604B5B6813F4800FC6D15D4B1B68AE
:1023280013F0020F03D0E368012B40F05081594AA3
:10233800136823F0F803216943EAC1031360236893
:1023480013F0080F42D063696BB3534B0122C3F8F3
:10235800802E00F0F5FB05464E4B5B6F13F0020F25
:1023680034D100F0EDFB401B0228F5D9032031E100
:10237800484A136823F0F803216943EAC10313604C
:10238800DDE7454B00221A6000F0DAFB0546414BB9
:102398001B6813F0020FD2D000F0D2FB401B0228BA
:1023A800F5D9032016E13C4B0022C3F8802E00F03B
:1023B800C7FB0546374B5B6F13F0020F06D000F0E2
:1023C800BFFB401B0228F5D9032003E1236813F063
:1023D800040F77D02F4B1B6C13F0805F33D1002391
:1023E80001932C4B1A6C42F080521A641B6C03F058
:1023F80080530193019B0125284B1B6813F4807FB0
:1024080023D0A368012B34D0052B38D0214B1A6F69
:1024180022F001021A671A6F22F004021A67A368F1
:10242800002B3DD000F08CFB06461A4B1B6F13F0B7
:10243800020F46D100F084FB801B41F2883398429A
:10244800F3D90320C6E00025D6E7144A136843F4FD
:102458008073136000F074FB0646104B1B6813F47E
:10246800807FCED100F06CFB801B0228F5D90320B9
:10247800B0E0084A136F43F001031367CFE7054B39
:102488001A6F42F004021A671A6F42F001021A67C3
:10249800C5E700BF00380240000047420070004016
:1024A80000F04EFB0646524B1B6F13F0020F08D08C
:1024B80000F046FB801B41F288339842F3D9032091
:1024C80088E0EDB9A369002B00F08380484A926840
:1024D80002F00C02082A51D0022B17D0454B0022DB
:1024E8001A6600F02DFB0446414B1B6813F0007F71
:1024F80042D000F025FB001B0228F5D9032069E033
:102508003B4A136C23F080531364DBE7394B0022FA
:102518001A6600F015FB0546354B1B6813F0007F63
:1025280006D000F00DFB401B0228F5D9032051E02E
:10253800E369226A1343626A43EA8213A26A520871
:10254800013A43EA0243E26A43EA0263284A5360D3
:10255800284B01221A6600F0F3FA0446244B1B6844
:1025680013F0007F06D100F0EBFA001B0228F5D922
:1025780003202FE000202DE000202BE0012B2BD0A2
:102588001B4B5B6803F48001E269914226D103F09A
:102598003F02216A8A4223D1616A47F6C0721A4013
:1025A800B2EB811F1ED103F44031A26A5208013AEE
:1025B800B1EB024F18D103F07063E26AB3EB026F1C
:1025C80014D1002006E001207047012002E001201C
:1025D80000E0002002B070BD0120FBE70120F9E710
:1025E8000120F7E70120F5E70120F3E70120F1E7F3
:1025F800003802400000474208B5254B9B6803F0AD
:102608000C03042B3FD0082B3FD1214B5A6802F012
:102618003F025B6813F4800F12D01D4B5968C1F359
:1026280088111C480023A1FB0001FFF701FC184B8F
:102638005B68C3F3014301335B00B0FBF3F025E0B3
:10264800134B5968C1F3881C4FEA4C11B1EB0C00CD
:102658006EEB0E0E4FEA8E1343EA90638101091A5E
:1026680063EB0E03DB0043EA5173C90011EB0C0C5A
:1026780043F10003990200234FEA8C2041EA9C5160
:10268800FFF7D6FBD3E7034800E0034808BD00BFC7
:102698000038024040787D010024F400002800F052
:1026A8009B8070B50D4604464F4B1B6803F007032B
:1026B8008B4208D2CBB24C4A1370136803F007035D
:1026C8008B4240F08B80236813F0020F17D013F071
:1026D800040F04D0454A936843F4E0539360236899
:1026E80013F0080F04D0414A936843F460439360A1
:1026F8003E4A936823F0F003A1680B439360236874
:1027080013F0010F32D06368012B21D09A1E012AE1
:1027180025D9364A126812F0020F61D033498A6807
:1027280022F0030213438B6000F00AFA06462F4B8F
:102738009B6803F00C036268B3EB820F16D000F0BD
:10274800FFF9801B41F288339842F0D9032042E018
:10275800264A126812F4003FE0D101203BE0234AE8
:10276800126812F0007FD9D1012034E01E4B1B689B
:1027780003F00703AB4207D9EAB21B4B1A701B6878
:1027880003F00703AB422DD1236813F0040F06D0E2
:10279800164A936823F4E053E1680B439360236877
:1027A80013F0080F07D0114A936823F46043216996
:1027B80043EAC1039360FFF71FFF0C4B9B68C3F309
:1027C80003130B4AD35CD8400A4B18600A4B1868AD
:1027D80000F06AF9002070BD012070470120FAE777
:1027E8000120F8E70120F6E7003C024000380240EB
:1027F800082F0008080000200400002000230F2BE9
:1028080000F2E48070B582B060E085685E00032461
:10281800B44025EA0405CC68B4402C43846045687C
:1028280025EA02054C68C4F300129A402A43426024
:102838005AE0DC08083450F8246003F007029500D9
:102848000F22AA4026EA020E0A69AA4042EA0E02AC
:1028580040F824205CE0072200E0002202FA0EF291
:102868002A4302345A4D45F824205A4A94686FEA9C
:102878000C0224EA0C054E6816F4801F01D04CEABD
:102888000405544CA560E46802EA04054E6816F491
:10289800001F01D04CEA04054E4CE560646802EA6A
:1028A80004054E6816F4003F01D04CEA0405494C73
:1028B8006560246822404D6815F4803F01D04CEAD9
:1028C8000402444C226001330F2B7DD801229A4028
:1028D8000C6804EA020C32EA0404F4D14C6804F0EF
:1028E8000304013C012C90D94A6802F00302032A30
:1028F80009D0C4685D000322AA4024EA02048A6859
:10290800AA402243C2604A6802F00302022A90D019
:1029180004684FEA430E032202FA0EF224EA020484
:102928004A6802F0030202FA0EF2224302604A6881
:1029380012F4403FC7D000220192274A546C44F455
:1029480080445464526C02F480420192019A9C08BB
:10295800A51C1F4A52F8255003F003024FEA820EC5
:102968000F2202FA0EF225EA02051C4A90423FF4B1
:1029780074AF02F5806290421AD002F580629042EC
:1029880018D002F58062904216D002F5806290421B
:1029980014D002F58062904212D002F58062904213
:1029A80010D002F5806290423FF455AF082255E7F7
:1029B800012253E7022251E703224FE704224DE7A1
:1029C80005224BE7062249E702B070BD704700BFF9
:1029D80000380140003C014000380240000002403D
:1029E8000AB181617047090481617047074AD36859
:1029F80023F4E0631B041B0C000200F4E0600343B3
:102A080043F0BF6343F40033D360704700ED00E048
:102A180000B5194BDB68C3F30223C3F1070CBCF103
:102A2800040F28BF4FF0040C03F1040EBEF1060F8B
:102A380018D9033B4FF0FF3E0EFA0CFC21EA0C01BB
:102A480099400EFA03F322EA0303194300280BDB2B
:102A58000901C9B200F1604000F5614080F8001337
:102A68005DF804FB0023E5E700F00F000901C9B297
:102A7800024B1954F4E700BF00ED00E014ED00E04C
:102A88000138B0F1807F0BD24FF0E0235861054A3E
:102A9800F02182F823100020986107221A617047FC
:102AA8000120704700ED00E010B504460E4B187881
:102AB8004FF47A73B3FBF0F30C4A1068B0FBF3F0F1
:102AC800FFF7DEFF68B90F2C01D901200AE00022C8
:102AD80021464FF0FF30FFF79BFF054B1C6000209D
:102AE80000E0012010BD00BF000000200800002009
:102AF8000400002008B50B4B1A6842F400721A60F3
:102B08001A6842F480621A601A6842F480721A6085
:102B18000320FFF76BFF0F20FFF7C6FFFFF754FBFB
:102B2800002008BD003C0240034A1168034B1B7893
:102B38000B441360704700BF2800002000000020ED
:102B4800014B1868704700BF28000020034AD2F8DC
:102B5800883043F47003C2F88830704700ED00E015
:102B680072B6FEE700B595B03022002108A8FDF73F
:102B78006FFB002303930493059306930793019334
:102B8800214A116C41F080511164126C02F080529C
:102B98000192019A02931D4B1A6842F480421A600E
:102BA8001B6803F480430293029B012308934FF4AC
:102BB8008033099302230E934FF480020F92192257
:102BC80010924FF4A872119212930423139308A839
:102BD800FFF716FB98B90F230393022304930023EE
:102BE80005934FF4A05306934FF4805307930521A0
:102BF80003A8FFF753FD20B915B05DF804FBFFF7F4
:102C0800AFFFFFF7ADFF00BF003802400070004083
:102C180070B5FFF76FFFFFF7A5FFFFF78BFA06E028
:102C28000023A3B3002208211F48FFF7D9FE1F4E37
:102C3800D6ED007A9FED1E7A77EE877AC6ED007A98
:102C480017EE900AFEF79CFF41EC100BFDF754FBC2
:102C580051EC100BFFF79CF807EE900A7060F0EE4D
:102C6800E77A17EE900AFEF78BFF02460B46002024
:102C78001049FEF725FE21F0004509A3D3E90023FA
:102C88002946FFF735F80028CAD00123C9E70122F1
:102C980008210548FFF7A4FEC9E700BFAFF300808D
:102CA8008DEDB5A0F7C6B03E001002402C00002004
:102CB80017B7D1380000F03FDFF834D00D480E497F
:102CC8000E4A002302E0D458C4500433C4188C427E
:102CD800F9D30B4A0B4C002301E013600432A242E3
:102CE800FBD3FFF733FFFDF78FFAFFF791FF70472C
:102CF80000000220000000200C000020282F0008FF
:102D08000C00002054000020FEE70000F8B500BFCA
:102D1800F8BC08BC9E467047F8B500BFF8BC08BCB4
:042D28009E4670470C
:102D3000FB21F93FFB2109407CD91240FB211940BE
:102D40007A6A1F407CD92240BBFD2540FB212940E7
:102D50003A462C407A6A2F405C4731407CD9324059
:102D60009C6B3440BBFD3540DB8F3740FB21394045
:102D70001BB43A403A463C405AD83D407A6A3F40FC
:102D80004C7E40405C4741406C1042407CD9424000
:102D90008CA243409C6B4440AC344540BBFD454055
:102DA000CBC64640DB8F4740EB584840FB214940AB
:102DB00083F9A200444E6E00FC291500D15727006C
:102DC000DD34F50062DBC0003C9995004190430082
:102DD0006351FE00BBDEAB00B761C5003A6E240054
:102DE000D24D42004906E00009EA2E001C92D100B3
:102DF000EB1DFE0029B11C00E83EA700F53582005E
:102E000044BB2E009CE98400B4267000417E5F0024
:102E1000D6913900538339009CF439008B5F8400CC
:102E200028F9BD00F81F3B00DEFF97000F98050052
:102E3000112FEF000A5A8B006D1F6D00CF7E3600F8
:102E400009CB2700464FB7009E663F002DEA5F0082
:102E5000BA277500E5EBC7003D7BF100F7390700A5
:102E600092528A00FB6BEA001FB15F00085D8D0083
:102E7000300356007BFC4600F0AB6B0020BCCF005B
:102E800036F49A00E3A91D005E619100081BE6007C
:102E900085996500A0145F008D40680080D8FF0010
:102EA00027734D0006063100CA561500C9A87300E5
:102EB0007BE260006B8CC000020000000300000099
:102EC000040000000600000000000040FB21F93F64
:102ED000000000002D44743E000000809846F83C3D
:102EE0000000006051CC783B00000080831BF0396B
:102EF0000000004020257A38000000802282E3365E
:102F0000000000001DF36935000000000000000013
:082F1000010203040607080991
:082F180050EFFF7F01000000F3
:042F2000F1010008B3
:042F2400C9010008D7
:0C2F280001000000100000000024F40074
:0400000508002CC102
:00000001FF
